:020000040000fa
:10000000f85f0020c55e0000376500000f67000044
:1000100000000000000000000000000000000000e0
:100020000000000000000000000000009f5b0000d6
:1000300000000000000000009f5b00009f5b0000cc
:100040009f5b00009f5b00009f5b00006161000000
:100050009f5b00009f5b00009f5b00009f5b0000b8
:100060009f5b00009f5b00009f5b00009f5b0000a8
:100070009f5b00009f5b00009f5b00009f5b000098
:100080009f5b00009f5b00009f5b00009f5b000088
:100090009f5b00009f5b00009f5b00009f5b000078
:1000a0009f5b00008d6600009f5b00009f5b00006f
:0c00b0009f5b00009f5b00009f5b000056
:020000040000fa
:1000bc00f8b5c046f8bc08bc9e467047d96800002d
:1000cc002d5e0000f8b5c046f8bc08bc9e467047d3
:0400dc00055e0000bd
:020000040000fa
:1000e000f47900201c0000000000000010740020c3
:1000f0002c00000001000000020083049b0c41045e
:1001000003d58021c901cb1a9bb29b095b0004492e
:10011000585e12b2002a00db7047404200b2fbe793
:10012000ac4b0000ac730020340000000100000064
:100130008023db019c46604483b29a04920c5904ec
:1001400002d561468a1a92b2920952000449505e61
:100150001bb2002b00db7047404200b2fbe7c046f9
:10016000ac4b000090740020200000000100000053
:1001700070b5040005882800034b9847608028006c
:10018000024b9847a08070bd11740020ad73002011
:1001900040710020dc0000000100000070b5002963
:1001a00002d1c00fc00370bd002804d100294fdb6d
:1001b0008020c001f7e700290cdb89b200282fdb83
:1001c00083b2002400258b4210d1802080010019c9
:1001d00080b2e8e7244b994218d0494289b20028fe
:1001e00016db83b200248b422fd001258b421fd90e
:1001f000880319001d4b984780b2800940001c4bb2
:10020000185a002de3d0201a80b2cce71949e6e74e
:10021000154b984223d043429bb280242402d1e75d
:10022000114b984217d043429bb280242402dae754
:1002300098030e4b984780b2800940000c4b1b5a24
:100240008020c001c01a80b2dbe780208001dae79d
:10025000c0200002a7e7074b80242402c3e7054b18
:1002600080242402aee7c0460080ffff0165000045
:10027000a8490000ff7f0000f47200204800000041
:100280000100000030b50023c45e0c4a5443022331
:10029000c25e0b4b5a4312190425445f63439b18fb
:1002a0009b130b800223c25e064b5a430423c05e9d
:1002b000054b43439b189b134b8030bdab2a00007a
:1002c000abeafffff32400000ddbffff68740020a2
:1002d000280000000100000010b50023c25e0a8063
:1002e0000223c45e054b63439b130024005f1b1a6b
:1002f0005b104b80d3185b428b8010bdda6e000020
:100300003c730020380000000100000070b500239d
:10031000cc5e0425435f5c430223cd5e0226835fef
:100320006b431b199b1313800223cc5e0425435f90
:100330005c430023c95e0223c35e4b43e31a9b1355
:10034000538070bd7473002038000000010000006d
:1003500070b50023cc5e0425435f5c430223cd5e71
:100360000226835f6b43e31a9b1313800023cc5e4a
:100370000225435f5c430223c95e0423c35e4b43f3
:100380001b199b13538070bd8c7200206800000005
:100390000100000070b505000c000223c15e0023bf
:1003a000c05e114b98476080a01c104b9847638833
:1003b0005b045b0c0e4a944663440e4a9bb2934224
:1003c00008d90023e85e80030623e15e0a4b9847c4
:1003d000208007e00223e85e80030423e15e064bf1
:1003e0009847208070bdc046417100209174002064
:1003f000ffdffffffe3f0000c964000058700020cf
:10040000e80000000100000070b5002828dd364b30
:10041000984200dd180000b204228b5e4343ca8874
:100420001341ca689446634400240a5f50434d88d0
:100430001c182c4124b208268a5f944207dc0a204b
:100440000a5e944209da1300ab40cb6003e013006c
:10045000ab40181ac860100070bdcb602200fae7ec
:10046000002810db4888ca68024112b20a240b5fd8
:100470009a4234db08240b5f9a42ecdd1a0082407a
:10048000ca601a00e7e7194b984202db404280b28b
:1004900000e0154800b20423cc5e4443cb881c41e5
:1004a000cb68e41a00228b5e43434d88e018284154
:1004b000404200b20a268a5f904207db0823ca5ee8
:1004c000904208dd1300ab40cb60c4e71000a840a9
:1004d000c018c860bfe76442cc600200bbe71a00e6
:1004e0008240ca601a00b6e7ff7f00000180ffff6c
:1004f000886c0020ac01000001000000f0b500286d
:1005000018db01225d4b1a805d4b19885d4b1b88ff
:100510001a1c1bb208b2834200da0a1c12b25a4bf0
:100520000020195e51435b88584843800020584c96
:10053000012508e001225242504b1a80e4e749109d
:10054000013b9bb22800a142f9dc202bf7d8002800
:1005500015d108b24d4c208089b2cc0715d4002ba0
:1005600013d001244010013b9bb281b20c4209d14f
:10057000002bf7d1454b188000245c8005e04348f0
:100580004380e6e7414c20806380424c0023e75ed5
:1005900047433e4b5b8860881b189bb23e484380b4
:1005a00000243e4d012603e07f10013b9bb2340046
:1005b00037483818a842f7d8202bf5d8002c15d189
:1005c0003cb235480480bfb2f80715d4002b13d0d5
:1005d00001256410013b9bb2a7b23d4209d1002b1b
:1005e000f7d12d4b1c8000245c8005e02a48438015
:1005f000e6e7294d2c806b80294b00201c5e62436e
:100600005b88284c63800024214d012603e05210b2
:10061000013b9bb23400aa42f9dc202bf7d8002c16
:1006200015d114b21f4d2c8092b2d00715d4002bd7
:1006300013d001256410013b9bb2a2b2154209d12f
:10064000002bf7d1174b1c8000245c8005e0154c73
:100650006380e6e7134d2c806b80084b00201b5e07
:10066000002b00dbf0bd4942084b198078420a4b51
:10067000188052420b4b1a80f4e7c046987900204c
:10068000d0790020a0790020000000201800002070
:10069000ff7f00001400002010000020feff00007b
:1006a0000800002004000020346e00203401000007
:1006b00001000000f0b5de4657464e464546e0b51f
:1006c00087b084463f4b00201a5e93463e4a002086
:1006d000105e5a4650435b8899460023ca5e3b4ce5
:1006e0000026a35f049353436488059423414f4637
:1006f000384118180227cb5f354e0027f45f2100e0
:1007000059437788ba463941411a60460027c05f8d
:10071000304e0025775f01900297784375880395e6
:100720002841411860460225475f2b4eb4460025fc
:10073000765fb0467e43300066467688b4463041e8
:10074000081a214e0225715f5e4671435443564696
:1007500034414e463141641804995943059e314154
:100760000919019c4646744366463441641802994f
:100770004f4303990f413f19134908804f80174c8d
:100780000021655e1100694364882141411a884651
:10079000134e0021705e84465843768861464a4372
:1007a0003241ba1a6b430f4d3041404428802341f7
:1007b000d31a6b8007b03cbc90469946a246ab4624
:1007c000f0bdc0466c7900204c790020647900208f
:1007d000100000205c7900201800002074790020af
:1007e00004000020547900201c72002070000000da
:1007f0000100000010b515491548164b9847164bd7
:1008000000229b5e002b10db104b5b88134a944642
:1008100063449bb2124a1288981a802109028842c6
:1008200000dd13000e4a138010bd084b5b88802248
:10083000d201944663449bb2094a1288d01a80219f
:1008400009028842eedd1300ece7c046d4790020af
:10085000547900208d7200209879002000c0ffff9d
:10086000807a0020686f0020f00000000100000086
:10087000f0b5c64600b52b4b00241c5f002c42dbb4
:10088000294b1b88294a12889b1a1bb2264a1188b9
:10089000264a1180002b3ddd254a1380254e00227b
:1008a000b55e254a9446126890469844234f6a00e4
:1008b000d05f4146081a61460860d35301350323cf
:1008c0001d4035801e4b19680a118a1a12181a60c9
:1008d0001c4d2b681811181a82182a601a490b68c7
:1008e0001811181a80180860184b0021595e184b0f
:1008f000984703b2174a1380002c0fdb164a138067
:1009000004bc9046f0bd094b1b88074a12889b1a0d
:100910001bb2bbe7114b00229b5ebde740420e4b72
:100920001880ede798790020807a0020107a002066
:100930000c000020dc79002044790020e0790020c0
:100940003c790020347900202c790020f0790020b7
:10095000c9640000d0790020fc7f0020cc7b0020ff
:10096000e07300203000000001000000084b1b680d
:10097000084a0020934206dd074a0021525e002a01
:1009800002db9b1398b270479b135b4298b2fae765
:100990002c790020ff3f0000987900203c74002053
:1009a0002c0000000100000070b50c001500054b84
:1009b000984729002000044b9847044b9847044b64
:1009c000984770bd896c0020356e00201d72002094
:1009d000696f0020b07400201800000001000000c2
:1009e00010b5034b9847034b1b88c01880b210bd4d
:1009f000e1730020807a0020dc7400200c000000ed
:100a000001000000014b18887047c046d4790020cf
:100a1000e87400200c00000001000000014b0020e1
:100a2000185e7047fc7f0020d47900200800000089
:100a300000000000cc7b002002000000000000004d
:100a4000f87f002004000000000000009c790020d6
:100a50000400000000000000947900200400000061
:100a6000000000008c79002004000000000000005d
:100a70008479002004000000000000007c79002040
:100a80000400000000000000807a00200200000046
:100a900000000000107a00200200000000000000aa
:100aa000747900200400000000000000f0790020ac
:100ab00002000000000000006c790020040000002b
:100ac0000000000064790020040000000000000025
:100ad0005c79002004000000000000005479002030
:100ae00004000000000000004c7900200400000019
:100af0000000000044790020040000000000000015
:100b0000dc7900200200000000000000e0790020f5
:100b100010000000000000003c79002004000000ec
:100b200000000000347900200400000000000000f4
:100b30002c7900200400000000000000d079002083
:100b40000200000000000000fc7f00200200000006
:100b500000000000a079002002000000000000005a
:100b60009879002002000000000000000000002032
:100b70001c00000000000000486a00204002000045
:100b800001000000f8b580498048814b9847814baf
:100b900000241c5f9623db009c4200dd90e00e23c6
:100ba0009622d2005210013b1bb2a242fada1d007b
:100bb000962000019840784b9c4200dc82e02100a6
:100bc000764b984702b270480023c15e611a5143c8
:100bd000294109b2724b19800226835fe31a5343fd
:100be0002b411bb26f4e33800426805f201a504386
:100bf000284100b26c4a1080994200da7de08342bd
:100c000065db6a4b02221a70013a5a7000229a7010
:100c1000634d644c644e238832889b1a2380298854
:100c20003388c91a09b22980614b994200dc8ae0f5
:100c30000023e05e5e4f7843584b984720802f801a
:100c40003c23338023883c33238096231b012b8055
:100c5000534b00269e5f534b00255d5f524b002790
:100c6000df5f3202120a534b1a672a02120a5a67ce
:100c70003a02120a9a67474b0020185e80034e4bd7
:100c800098425edd0e244010013c24b29842fadc0a
:100c900096210901414b984703b23b489622120125
:100ca000961b5e4326410680551b5d4325414580ca
:100cb000d71b7b43234183803449404b9847f8bd81
:100cc0000e2374e73e49354b984702b27be7012279
:100cd000364b1a70814207db01325a7000229a703b
:100ce0002f4d314c2f4e96e7304b00225a70023276
:100cf0009a702d4d2a4c2b4e8de781420adb2b4bef
:100d000002221a7000225a7001329a70254d244c2a
:100d1000254e80e70021254a1170834208db13002d
:100d200002225a70013a9a701e4d1f4c1c4e72e7f7
:100d30001e4b01225a7001329a701b4d194c184eed
:100d400069e70e24a4e749109623db00591a89b2fb
:100d500031802b88c9182980238832889b182380ea
:100d6000104b00229a5e104b00215b5e0c49002064
:100d7000095e0902090a0f4801671202120a426756
:100d80001b021b0a83679ae7b0790020cc78002009
:100d90006974002000790020cb0c0000c9640000b9
:100da00090790020887900208079002054780020f4
:100db0002409000000240042ffffaf04f572002068
:100dc000cc0c000000600020480a00000100000078
:100dd000f0b5d64600b5d44b1b889b00d34a138090
:100de000d34b1b78002b01d100f066fcd14ad249cd
:100df000d248d34b9847d34b1a78042a00d9abe09a
:100e00009300d14ad3589f46d04b1a68d04b1a80d2
:100e10000023d0490b60d0490b804b80cf490b8019
:100e2000cf490b60cf490b80cf490b80cf490b6076
:100e3000cf4b00215b5e002b00d18de00121c14b27
:100e40001970531cc14a136086e0c04b1b68c94a25
:100e50001380c94a0021525e002a0bd1be4a0023ea
:100e600013805380bf4a1380bf4a1380b54b0022c2
:100e70001a7071e0be4a0021525e002a19ddbf4a95
:100e8000b5490220095e914209dcb24a1368bc49a7
:100e90008c46634413609b13af4a53805ce0b949ae
:100ea000ad4a51800221a74a11700133a74a13604d
:100eb00052e0b54aa8490220095e914209dab349d5
:100ec000a54a518002219f4a117001339f4a136045
:100ed00042e0a04a1368ae498c46634413609b13fa
:100ee0009d4a538038e0994b1a68aa4b1a80a02378
:100ef000ff339d4a12889a4200d9e1e0994b0020c5
:100f0000185e8d4aa449a54b9847a54b964a12886e
:100f10009a4200d9dce0954b1868a1301860a149cd
:100f2000a14b9847904b1880914b00229b5e002b61
:100f300000dae0e000dceae08b4b1a88894b1a808b
:100f4000874a8a4b1b6811688c4663441360844b44
:100f50001b689b0b814a13807848804b1b88038059
:100f6000924b9847924c0023e25e924b53439b1363
:100f700091490b815b424b81774b0020185e6d4b92
:100f800000229b5ec01a8d4b98478d4b1880002223
:100f9000a35e984200da87e300228a4b1a818949ce
:100fa0000b895b424b816c4b0220185e614d022223
:100fb000ab5ec01a814b9847814c6080764a824b69
:100fc0001168196021005d48804b9847804b984715
:100fd0000022ab5e7f490a68944663447e4a00263d
:100fe000905f1b1a0b609b1213800222ab5e7b4941
:100ff0000a68944663447a4a0025505f1b1a0b60c6
:101000009b1213800022a35e76490a6894466344cb
:10101000754a0025505f1b1a0b609b121380022239
:10102000a35e72490a6894466344714a0024105fc3
:101030001b1a0b609b1213804b4b1b886d490a686f
:10104000944663446c4a10881b1a0b609b0a1380f9
:101050006a4b1b886a490a6894466344694a108847
:101060001b1a0b609b0a1380304b00229a5e664b62
:1010700000215b5ed31a00d577e364490868844693
:1010800063440b609b121bb25f490b8060494b436a
:101090009b1347490b805f4803689c4662445e4946
:1010a00000240b5fd31a03601b130b805b4b1b8860
:1010b000002b02d0013b594a138004bc9246f0bd7c
:1010c0002b4b0020185e1c4a3f49554b98471ce7a4
:1010d000544b254a13805449244a1160534a1380c3
:1010e000534a544b1a600322164b1a70174a13685e
:1010f0000133136018e71c4b1b885b42194a1380ad
:10110000174a1a4b1b681168cb1a13601fe7124a63
:10111000002313805380134a1380134a1380094b12
:1011200000221a7013e7c046e40000200079002076
:10113000980000200c7900201c790020a479002060
:101140003d730020ce7b0020c874002074780020fe
:1011500018790020fc7800200479002068790020ac
:10116000247900207879002070790020f47800201c
:101170009c00002038790020220000207506000025
:101180000e070000760600008bf9ffff8af9ffffcb
:10119000f2f8ffff20790020cc780020a165000044
:1011a000810600008d070000016500009174002099
:1011b000607900209939000030000020597000202b
:1011c000c478002044000020bc7800207573002003
:1011d000496a0020dc780020ca000020d478002072
:1011e0002c00002094780020a400002084780020a7
:1011f0002a000020ec780020260000204200002079
:10120000e4780020c2000020087900209c780020ab
:1012100006240000a478002072000020cc000020ea
:101220003d740020820600009a2331004879002096
:1012300000081a00b4780020d24b1a68d24b1a80ea
:10124000d24b0020185ed24ad249d34b9847d34b99
:101250009847d34b1b88c018d24b1880d24b984765
:10126000d24b1880002865ddd14b1880d04b1b88ed
:101270009b02d04a1360d04cd04b9a465b885246b2
:10128000d2681a412280ce4d6b88ea681a4162808a
:10129000cc4a2100cc48cd4fb847cd4ecd4a310085
:1012a000c948b847bf4b1b88c74a13801000ca4bb8
:1012b00098472200c349c448c84fb8473200c549bf
:1012c000c148b847002232800021635e51464988f8
:1012d0008b405146cb600221635e69888b40eb6096
:1012e000bf4b1a60bf490220335e48888340cb6001
:1012f000bd4b1a80bd4b00229b5e002b1ed00422ea
:10130000bb4b1a709f4a1368013313600023b94a1c
:101310001360b94a1380b94a1380b94a1360b94ab5
:101320001380b94a1380b94a1360b94a1380b94a85
:10133000138011e640429e4b188097e70023a44a91
:1013400053809a4a1380b44a1380a94b00221a7022
:10135000dce78c4b1a68b14b1a80b14b1b8895495e
:101360000a6894466344924a10881b1a0b609b0ad1
:101370001380864b0020185e854a8649864b984725
:10138000864b9847864b1b88c018864b1880864b27
:101390009847864b1880002870db9f4b18808c4b39
:1013a0000020185e9f4b984203dd43429d4a9342c2
:1013b00068dc40439c4b181a9c4b9847894b18811a
:1013c000884a13895b425381794b18886f4b0022fe
:1013d0009b5e002b5adb754b00229b5ec01a814935
:1013e000934b98477a4b58808b4b1a88914b00202f
:1013f0009a4232dd904b00229b5e904a0020105ea4
:10140000834245da5b434043c01a884b98478c4b74
:1014100018605e4b00229b5e002b3cdb6c4b5a88b5
:10142000884b1a80874b00229b5eaf245c43a41339
:10143000041b854b9847784b1b88b62149005943bc
:101440008913201a814c6043814b9847814b984205
:1014500000da1800002800dd00208003002800dded
:1014600000205f4b1b687c4a82189a4219db7b4a3a
:101470008218934276dc5a4b186017e04042664b64
:1014800018808ce70022574b1a8199e74042a2e767
:1014900003004343b7e74e4b5b885b42694a1380c6
:1014a000c0e76e4a944663444d4a13604c4b1b6838
:1014b0009b13474a13806a4b00229a5e002a57db2f
:1014c00092b24c484c490b880468e31a9b1803609d
:1014d000db0a0b80624b02229a5e002a4bdb92b23f
:1014e000474848490b880468e31a9b180360db0ae5
:1014f0000b805b4b04229a5e002a3fdb92b243488a
:1015000043490b880468e31a9b180360db0a0b80cd
:10151000354b00229b5e2c22ff32934200dda3e07c
:101520001a4a0021525e002a00d1ade03a4a1188e1
:101530000a00f43aff3a4b4892b2824200d99fe047
:101540001b4a12885200fa2080008446624492b2fc
:101550008a4200d294e0012b00dcfde4023b224ae7
:101560001380f9e43c4a944663441d4a13609de7a6
:10157000524292b2a5e7524292b2b1e7524292b2bf
:10158000bde7c04674780020287900209c00002028
:101590001c790020bc7800203d740020b17400202c
:1015a0005079002068790020e974002078790020c3
:1015b00048790020b4780020c47800203000002052
:1015c00044000020cc780020a4790020757300200e
:1015d0000479002014790020917400203d730020cc
:1015e000fc780020ac000020587900202200002068
:1015f000ce7b0020ac7800209a0000201e00002046
:101600008c7800208e000020880000207c7800204c
:1016100054000020860000207079002030790020de
:101620008a000020a440000059ea5210e56600003c
:1016300059700020c4320000a4000020607900200e
:101640007400002068000020dd740020522000009b
:10165000c96400005bbfffff950a00006bf5ffff48
:10166000bc7900200d4e0000414b98470422414bad
:101670001a70033a404b1a700022404b1a806be4f8
:1016800001333e4a138067e43d4a3e49098891424e
:1016900006d8002b00dc5fe4013b384a13805be492
:1016a0000133364a138057e45b434043181a364be4
:1016b0009847364b188172e4354a002313805380d3
:1016c00093809622120133490a8033490a803349b4
:1016d0000a8033490a674a678a67324a1360324a86
:1016e0001380324a1380324a1360324a1380324ade
:1016f0001380324a1360324a1380324a1380324ace
:10170000138053808021c9019180304a1380538017
:101710002f4a138053802f4ad3601c4ad3602e4a2d
:10172000d3602e4a138053802d4a138053802d4a54
:10173000002111702c4a13602c4a13802c4a13602c
:10174000104a13802b4a13802b4a13602b4a1380b4
:101750002b4a13602b4a13802b4a13802b4a138089
:101760002b4a13802b4a13807ee41b0185e4c0467c
:10177000e9630000837a0020cf7b002058790020a5
:101780008206000070790020e56600004400002019
:10179000b07900209079002088790020807900209d
:1017a00000240042ac7800209a0000201e00002097
:1017b0008c7800208e000020880000207c7800209b
:1017c0005400002086000020a47900200479002025
:1017d0000c79002030000020ac000020c4780020ec
:1017e000cc780020ce7b0020fc7800206879002097
:1017f0002479002078790020b478002048790020ee
:10180000f4780020ca0000202c000020a400002052
:101810002a00002026000020c874002014000000c8
:1018200001000000386000207a600020166100206e
:1018300068640020826500202479002004000000f4
:1018400000000000bc79002006000000000000003d
:101850001c79002004000000000000001479002022
:1018600004000000000000000c79002004000000cb
:1018700000000000047900200400000000000000c7
:10188000fc78002004000000000000009079002097
:101890000200000000000000887900200200000023
:1018a000000000008079002002000000000000001d
:1018b000787900200200000000000000707900200c
:1018c0000200000000000000f47800200400000086
:1018d00000000000ec780020040000000000000080
:1018e000e47800200400000000000000dc78002004
:1018f0000400000000000000d47800200400000074
:1019000000000000cf7b002001000000000000006c
:10191000ce7b00200100000000000000837a002040
:1019200001000000000000006879002002000000b3
:1019300000000000b0790020060000000000000058
:10194000cc7800200400000000000000c4780020d3
:101950000400000000000000607900200200000088
:101960000000000058790020020000000000000084
:10197000507900200200000000000000bc78002028
:101980000400000000000000487900200200000070
:1019900000000000b47800200400000000000000f7
:1019a000407900200200000000000000387900208b
:1019b000020000000000000030790020020000005a
:1019c0000000000028790020020000000000000054
:1019d000207900200200000000000000187900209b
:1019e000020000000000000010790020020000004a
:1019f00000000000a47900200600000000000000a4
:101a0000ac7800200400000000000000a478002052
:101a1000040000000000000008790020020000001f
:101a2000000000009c78002004000000000000007e
:101a300000790020020000000000000094780020df
:101a400004000000000000008c780020040000006a
:101a50000000000084780020040000000000000066
:101a60007c78002004000000000000005478002072
:101a70000300000001000000000102007478002053
:101a80000400000001000000010000001c00002014
:101a9000ba00000000000000d8000020080000008c
:101aa00000000000f87800200200000000000000a4
:101ab0006c7800200400000000000000f078002096
:101ac0000200000000000000647800200400000014
:101ad00000000000e8780020020000000000000084
:101ae000827a00200100000000000000137a00202c
:101af0000100000000000000e000002018000000cd
:101b000000000000f8000020c000000000000000fd
:101b10005c7800200400000001000000b8010020f3
:101b2000847a00204801000000000000b801002075
:101b30003000000000000000c8790020080000000c
:101b400000000000147a00206c000000000000007b
:101b5000e801002078000000000000006002002082
:101b60000020000000000000d07b002028040000be
:101b70000100000000000000bc7e0020247f002047
:101b80008c7f00200000000000000000000000002a
:101b90000000000000000000000000000000000045
:101ba0000000000000000000000000000000000035
:101bb0000000000000000000000000000000000025
:101bc0000000000000000000000000000000000015
:101bd0000000000000000000000000000000000005
:101be00000000000000000000000000000000000f5
:101bf00000000000000000000000000000000000e5
:101c000000000000000000000000000000000000d4
:101c100000000000000000000000000001000000c3
:101c2000000000000e33cdab34126de6ecde050093
:101c30000b00000000000000000000000000000099
:101c40000000000000000000000000000000000094
:101c50000000000000000000000000000000000084
:101c60000000000000000000000000000000000074
:101c70000000000000000000000000000000000064
:101fa0000000000022222222222222222222222299
:020000040000fa
:101fb000f0b585b0029203934c23c25c3d3b1340c5
:101fc000510600d467e0042b04d0082b2bd000204e
:101fd00005b0f0bd036c846b029d7422825c012a03
:101fe00010d0211c181c03f0bffe002800d16ee1a8
:101ff0000126291c201c03f0c1fe002800d1002668
:10200000f0b2e5e7211c181c03f09afe002800d16d
:102010005be10126291c201c03f09cfe002800d156
:102020000026f0b2d4e7066c476c846bc56b029a4d
:10203000039b009201937423c35c012b16d02200f2
:102040002b003000390003f055fe002800d142e19a
:1020500001231e1c009a019b2000290003f054fe5e
:10206000002801d100231e1cf0b2b1e722002b0092
:102070003000390003f02afe002800d129e10126b2
:10208000009a019b2000290003f02afe002800d1bd
:102090000026f0b29ce7920600d496e0022b40d0d6
:1020a00019d9042b5ed0082b00d016e1066c426cc7
:1020b000856bc36b029f039c7421415c01296cd02a
:1020c0009a427bdd01209c4202dc02d1af4200d962
:1020d0000020c0b27ce7012b00d0fee04023c318f3
:1020e000002159563823c3181b785bb202aa127814
:1020f00052b27424005d012809d00020994200dc0e
:1021000066e7d817d10f93424841c0b260e700207c
:10211000994200db5ce7d80fd1179a424841c0b220
:1021200056e74023c31800229a5e3823c15e02abf3
:1021300000241b5f7424005d012809d000208a421e
:1021400000dc45e7c817da0f99425041c0b23fe7bb
:1021500000208a4200db3be7c80fda178b42504170
:10216000c0b235e7016c836b029a7424005d0128cc
:1021700009d00020994200dc2ae7d817d10f9342fa
:102180004841c0b224e70020994200db20e7d80f85
:10219000d1179a424841c0b21ae7934208dd0120a4
:1021a000a34202dc02d1bd4200d90020c0b20fe739
:1021b000934201d1b542f2d8002009e79a4202d1f8
:1021c000ae4200d97ee7002002e7022b3bd01cd9ab
:1021d000042b52d0082b00d081e0066c426c856b3a
:1021e000c36b029f039c7421415c01295cd09a421d
:1021f00002d876d1ae4274d901209c4202d802d1d5
:10220000af4200d90020c0b2e2e6012b67d14023e3
:10221000c3181a783823c3181b7802a909787424c4
:10222000005d012807d000209a4200d8d0e68b42fa
:102230004041c0b2cce600209a4200d3c8e69942a1
:102240004041c0b2c4e64023c3181b88018f02aad4
:1022500012887424005d012807d000208b4200d82a
:10226000b6e691424041c0b2b2e600208b4200d3b4
:10227000aee68a424041c0b2aae6026c836b029c81
:102280007421415c012907d000209a4200d89fe6c2
:10229000a3424041c0b29be600209a4200d397e699
:1022a0009c424041c0b293e6934208d90120a34228
:1022b00002d802d1bd4200d90020c0b288e69342c4
:1022c00001d1b542f2d8002082e6002080e600204d
:1022d0007ee600207ce600207ae6002078e60020fa
:1022e00076e6002074e64c23c25c3d3b1340022b93
:1022f00010d0dab2022a07d9042b0fd0082b11d143
:10230000836c1868596804e0012b0bd1836c187832
:1023100000217047836c18880021fae7836c1868e5
:102320000021f6e700200021f3e7f0b50027552350
:102330009c460023be008619c5192435026d511c28
:1023400001657168c956c46aa1540133dbb22a78a9
:102350009a42f3d80137ffb26346c35cbb42e8d868
:10236000f0bd10b5002816d0038899420dd0002b7f
:1023700013d0002301339bb2da00821814888c42f8
:1023800004d0002cf6d1002004e002000020002937
:1023900000d0506810bd0020fce70020fae710b51f
:1023a00001235b420380021d04002434230000212a
:1023b00002c219700133a242fad1164bc362002245
:1023c00000238263c36302644364002383644c324a
:1023d000835401328354036507328354013283549a
:1023e00000225621435202314352023143520231fc
:1023f0004254036643660c314254c36680239b01fa
:1024000003676739742281540363034b1b68986226
:1024100010bdc046600200205c780020f8b50400c2
:102420004d23c25c082a0bd893007b4ad3589f46a1
:102430005a22835a01338352023a835a0133835218
:10244000f8bd5822835a591c8152023a825a9a4244
:1024500004d95a22a35a0133a352f1e70022582388
:10246000c252fff762ff5423e35c226d944663443b
:10247000802292019342ecd900224d23e254e8e7f6
:10248000fff731ff06000f0002000b002000fff7ee
:102490008ffd002803d004224d23e254d0e72664a8
:1024a0006764cde75822835a591c8152023a825af6
:1024b0009a4246d800225823c252043bc35c026da4
:1024c0009446634480229201934201d9002303651c
:1024d000002755239c460023be00a619e519243584
:1024e000226d511c21657168c956e06a815401331f
:1024f000dbb22a789a42f3d80137ffb26346e35c35
:10250000bb42e8d8236de26e93421ad301226823be
:10251000e2542000fff7e7fe06000f0002000b0068
:102520002000fff745fd00281bd0236e002b1bdb8e
:10253000236d002b24d05822a25a002a1bd0636698
:1025400023e02000fff7cffe06000f0002000b0083
:102550002000fff72dfd002803d06823e35c002b4b
:10256000e3d1266467646be7636600232365082272
:102570004d33e25464e75422a25c9b1a636604e084
:102580005423e35c226fd31a636607224d23e2547f
:1025900056e75822835a591c8152023a825a9a426b
:1025a00000d94de700225823c252043bc35c426e5f
:1025b000944663444366002b00da41e702224d2330
:1025c000c2543de75822835a591c8152023a825a1a
:1025d0009a4200d934e700225823c252043bc35c1c
:1025e000026d9446634480229201934201d90023f4
:1025f00003652000fff799fe636e226d9b1a226e21
:10260000934205d9216f8c4663449a4200d217e762
:1026100000224d23e25413e7ac6700004d23c35c56
:102620000b705523c35c4b705623c25a8a70c35a31
:102630001b0acb705023c3181b780b71036d1b0a48
:102640004b71036d1b0c8b71036d1b0ecb712c2317
:10265000c3181b780b72c36a1b0a4b72c38d8b7233
:10266000c36a1b0ecb726023c3181b780b73036ef7
:102670001b124b73036e1b148b73036e1b16cb73f1
:102680006423c3181b780b74436e1b124b74436e88
:102690001b148b74436e1b16cb747023c3181b78ea
:1026a0000b75036f1b0a4b75036f1b0c8b75036f48
:1026b0001b0ecb753023c3181b780b76036b1b0adc
:1026c0004b76438e8b76036b1b0ecb7682230b7778
:1026d0001d207047f0b5de4657464e464546e0b5ec
:1026e00083b004000d0092460127032a00d8d8e0e9
:1026f0004b78013b072b00d9d3e000224d23c25475
:102700000833c2540533c2520265c9780902ab7856
:102710005b189bb2562143520231435200200021e4
:102720002064616454230021e15402210833e15400
:102730000c330021e15462666b78002b00d1cde0b0
:102740000426002399462b0025004c46994699e023
:102750004b46da1951780902db5d5b189bb2009396
:10276000cc4b1b689b461868d3781b029178c9181c
:1027700089b2fff7f6fd8446002800d1fae100880f
:102780005b465b689b461b88984212d0002b00d1a9
:10279000f2e100225946a346013292b253009b183f
:1027a000db00cb181c88a04206d0002cf4d1474691
:1027b00077e018005b4600e05c46002800d1dde1d0
:1027c000002b00d1dce15b69009960469847a300cb
:1027d000eb185860002838d1474662e0ad4b1b68c3
:1027e00018684b46da19d3781b029178c91889b258
:1027f000fff7b7fd002800d1b2e1a300eb18586045
:1028000023e0a44b1b6818684b46da19d3781b02e7
:102810009178c91889b2fff7a4fd002800d1a1e181
:102820000268a300eb185a600fe0a200aa184b46fa
:10283000d9194b781b02887800041b184846c05de4
:102840001b18c97809065b1853604f443b792a1955
:10285000243213705422a95c5918c9b2a954083201
:10286000a85c1b18ab548027bf01380003f062fd41
:102870007f1a2f670636f6b20134e4b24b465b7816
:10288000a34216d94b469b5d9846771cffb2012b9d
:1028900000d15de7002bc8d0022b9fd0032bb0d016
:1028a0000127380003b03cbc90469946a246ab468f
:1028b000f0bd2c004d46aa5d4c23e254731cdbb2e4
:1028c000ef5cb31cdbb29846012f09d0002f69d012
:1028d000022f44d0032f53d00127e2e70426eae772
:1028e0006c4b1b68994618684346ea18d3781b025c
:1028f0009178c91889b2fff734fd84460028d0d0fa
:1029000001884b465b6899461b88994210d0002b82
:10291000c7d000224846a146013292b253009b180c
:10292000db00c3181c88a14205d0002cf4d1b8e705
:1029300019004b4600e04c460029b2d0002bb0d025
:102940004246aa18527812024146695c891889b237
:102950005b6960469847a064002830d1a1e74d4be1
:102960001b6818684346ea18d3781b029178c91887
:1029700089b2fff7f6fc002800d1f5e0a0641ee064
:10298000444b1b6818684346ea18d3781b029178b9
:10299000c91889b2fff7e5fc002800d1e6e003681a
:1029a000a3640ce0ea1853781b02917809045b18c1
:1029b0004146695c5b18d27812069b18a364b71d68
:1029c000fbb298464c23e35c9c460f271f40022f26
:1029d00000d198e060d9042f00d19fe0082f00d0eb
:1029e000c6e0a946c1444b465b7800210022009115
:1029f00001921b0200934b469b789b46002359464d
:102a00000a040098019980185941009001914146ab
:102a10006a5c002300980199801859410090019147
:102a20004946c9788b4600215b461806009a019bef
:102a300012184b4100920193002249460b790098ed
:102a4000019980185941009001914b465b799b4652
:102a5000002259460b0200980199801859410090b4
:102a60000191494689798b4600205b461904009afa
:102a7000019b12184b41009201934b46db7999461a
:102a8000002249460b060098019912184b41a26397
:102a9000e36308e05c780020012f69d14346eb5cda
:102aa000a3630023e36363466a46137013785bb243
:102ab000002b44db202362461a4313004c22a3540c
:102ac0000a36f6b2ab1958780002aa5d80189a78d7
:102ad00012048018db781b06c018206602f0d2fbb7
:102ae000e066331ddbb2ea5c7423e2540536f6b2cd
:102af000b24528d9ab5d012b2ad12000fff7f3fbab
:102b00002064616424e04346eb185b781b02424674
:102b1000aa5c9b18a363db17e363c4e74346ea1888
:102b200053781b02917809045b184146695c5b1875
:102b3000d27812069b18a3630023e363b3e73e0039
:102b40004644f6b2bee72000fff7cdfb2064616487
:102b50006a785523e2542a78083be2540027a0e61d
:102b600001279ee601279ce601279ae6012798e6c1
:102b7000012796e6474694e6474692e6474690e6a2
:082b800047468ee60020704775
:020000040000fa
:102b8800f0b5d6464f4680b583b0051c081cc04b2f
:102b98001960c04cc049a047c04b1968a047c04b3a
:102ba8001860291cbf4b98470090bf4b1860bf4e58
:102bb8000224bf4b9a46bf4f00e02c00311c301c4a
:102bc800d047061c651cadb2bb49b847002804d0e5
:102bd800212df2d1b94b5c8001e0b84b5c80301cf0
:102be800b74b984700b2b54b1880c30713d4b34b03
:102bf8005b88002b0fd001224010013b9bb20242a0
:102c080006d1002bf8d1ad4b188000225a8002e083
:102c1800aa4a108053809f4daa4b19680098a8476c
:102c28009d49a847041c0022a74b5a800021a74ba6
:102c38009847002809d0a049201c9e4b9847012698
:102c480000281ed09a4d9b4f0ae0a149201ca14b99
:102c580098470126002814d0954d9e4f2be01e0062
:102c6800211c201ca847041c9349b847002806d0fb
:102c7800731c9bb2212bf2d1934b5e8001e0924be7
:102c88005e80201c8e4b984700b28f4b1880c3077c
:102c980026d48d4b5b88002b22d001224010013bab
:102ca8009bb2024219d1002bf8d1874b1880002221
:102cb8005a8015e01e00211c201ca847041c8449ca
:102cc800b847002806d0731c9bb2212bf2d17e4b4b
:102cd8005e80d6e77c4b5e80d3e77b4a10805380ca
:102ce8007d4d0227724b9946724e00e02700291c41
:102cf800281cc847051c7c1ca4b26f49b047002893
:102d080004d0212cf2d1754b5f8001e0734b5f80ba
:102d1800281c6b4b984700b2704b1880c30713d41c
:102d28006e4b5b88002b0fd001224010013b9bb2f9
:102d3800024206d1002bf8d1684b188000225a8035
:102d480002e0664a108053805e4b1b68181c009393
:102d5800534b19684f4b9847051c0022604b5a800b
:102d68005549544b98470127002814d0504e514cd0
:102d780000e01f00291c281cb047051c4e49a0472d
:102d8800002806d07b1c9bb2212bf2d1544b5f80cc
:102d980001e0534b5f80281c494b984700b2504bc9
:102da8001880c30713d44e4b5b88002b0fd0012229
:102db8004010013b9bb2024206d1002bf8d1484b90
:102dc800188000225a8002e0454a10805380364b12
:102dd800196800982f4b9847051c0022414b5a80d0
:102de80000213a4b9847002809d03349281c314b19
:102df8009847012700281ed02d4e2e4c0ae0344952
:102e0800281c344b98470127002814d0284c314ef1
:102e18002be01f00291c281cb047051c2649a04789
:102e2800002806d07b1c9bb2212bf2d12d4b5f8052
:102e380001e02c4b5f80281c214b984700b2294b9e
:102e48001880c30753d4274b5b88002b4fd001222f
:102e58004010013b9bb2024246d1002bf8d1214bd6
:102e6800188000225a8042e01f00291c281ca04715
:102e7800051c1749b047002806d07b1c9bb2212ba4
:102e8800f2d1184b5f80d6e7164b5f80d3e7c04678
:102e98007c79002069470000cdcc4c3e8479002025
:102ea8009c79002001390000f87f0020cdcccc3f70
:102eb800393c0000415d000000fc7f466c79002031
:102ec800f56200008c790020647900207d5d0000a7
:102ed80000fc7fc6695d0000cdcccc3e5c7900204b
:102ee8007479002014000020554a10805380554bf7
:102ef8001b681c1c0193544b19680098534b984746
:102f0800211c534b9847041c0022524b5a805249ab
:102f1800524b98470127002814d0514e4f4d00e0de
:102f28001f00211c201cb047041c4b49a84700283f
:102f380006d07b1c9bb2212bf2d1464b5f8001e06f
:102f4800444b5f80201c474b984700b2414b188088
:102f5800c30713d43f4b5b88002b0fd001224010ce
:102f6800013b9bb2024206d1002bf8d1394b1880a5
:102f780000225a8002e0374a108053803a4b196881
:102f88000198324b9847011cfe208005304b98472a
:102f9800041c0022354b5a802f49304b9847012694
:102fa800002814d02e4d2d4f00e01e00211c201c9f
:102fb800a847041c2849b847002806d0731c9bb2b0
:102fc800212bf2d1294b5e8001e0284b5e80201c2a
:102fd800244b984700b2254b1880c30713d4234bc2
:102fe8005b88002b0fd001224010013b9bb20242ac
:102ff80006d1002bf8d11d4b188000225a8002e020
:103008001a4a108053801a4b00241c805c80194b8c
:103018000020185e184b9847184b1c80184b1c80d2
:10302800184b1c805c80184b1c805c809c80802224
:10303800d201da8003b00cbc91469a46f0bdc04676
:1030480014000020947900207c7900206947000052
:10305800614200000800002000fc7f46415d00003e
:10306800393c0000f562000084790020000000204f
:103078004c790020a0790020c1570000107a002068
:0c308800807a002054790020d4790020c8
:020000040000fa
:1030940010b5022303721f33c26853704368984704
:1030a40010bd10b5c3685b78052b2cd89a0017495e
:1030b4008a589746164a126800211173c2685370e1
:1030c400022303724368984710bd114b1b68012209
:1030d4001a730023f2e70e4b1b6802221a730023b3
:1030e400ece70b4b1b6803221a730023e6e7084b3b
:1030f4001b6804221a730023e0e7054b1b680522b2
:103104001a730023dae72223d8e7c046c068000018
:103114005c78002010b50023c2685370044b1b6810
:103124001b7bc2689370032303724368984710bde6
:103134005c78002030b5002812d00488a14213d056
:103144000023002c08d001339bb2dc00041925882d
:103154008d420ad0002df6d140231370002009e0df
:1031640043231370002005e004000029f4d06068b4
:103174000023137030bd10b502230372c368597065
:103184004368984710bdf0b583b00400c268294b6a
:103194001b6818686b46dd1d93781b025178c918ab
:1031a40089b22a00fff7c6ff2978002926d1214bce
:1031b40019684b68002b25d007884b681b88bb42d5
:1031c40025d04b681b88002b23d00022013292b2f9
:1031d4004d6853009b18db001e00ed5abd4203d01e
:1031e4004d68eb5a002bf1d14b689b5b002b12d13d
:1031f40041212000fff7bfff03b0f0bd2000fff71f
:10320400bafff9e744212000fff7b5fff4e70026f1
:10321400eae70026e8e74b68e268911c9e19f36828
:103224009847023020720023e268537063682000dc
:103234009847e1e75c780020f0b583b00400c268e9
:1032440093781b025678f618b6b2444b1b6818687c
:103254006b46dd1d2a003100fff76cff2978002939
:1032640040d13e4b19688b68002b17d08b681b88a4
:10327400b3423cd08b681b88002b3ad00023013327
:103284009bb28a68dd00525bb24203d08a68525b0b
:10329400002af4d18b685b5b002b2cd14b68002b8c
:1032a40039d007884b681b88bb4239d04b681b88d0
:1032b400002b37d00022013292b24d6853009b1884
:1032c400db001e00ed5abd4203d04d68eb5a002bc3
:1032d400f1d14b689b5b002b26d141212000fff7e5
:1032e4004aff02e02000fff746ff03b0f0bd0025cf
:1032f400d0e70025cee78b68227a033ad2b2e168a0
:1033040003315d196b6898470028eed042212000f4
:10331400fff731ffe9e744212000fff72cffe4e742
:103324000026d6e70026d4e74b68227a033ad2b2c5
:10333400e16803319e1933699847002804d01421a9
:103344002000fff718ffd0e7022323720023e2686e
:103354005370636820009847c7e7c0465c78002034
:1033640010b5437a2d2b00d8aee02e230372002330
:10337400c26853700522c1688a70c268d370584b02
:103384001b681a8cc1680a711a8c120ac1684a71c6
:10339400427ac1688a712022c168ca718221c468d4
:1033a40021723839c46861721731c468a1720d3151
:1033b400c468e172c1680a731332c1684a73013a7e
:1033c400c1688a73023ac168ca733121c46821741e
:1033d4000831c4686174c1688a74c168ca740432eb
:1033e400c1680a750432c1684a755a6a002a00d154
:1033f4006ee05a6a1278c1688a755a6a5278c1684e
:10340400ca755a6a9278c1680a765a6a1279c1688a
:103414004a765a6a5279c1688a765a6ad279c168f8
:10342400ca765a6a127ac1680a775a6a527ac168a5
:103434004a775a6a927ac1688a775a6ad27ac16894
:10344400ca775a6a117b2022c468a1545a6a917bb4
:103454002122c468a1545b6ada7b2223c168ca545e
:103464001f4b1b68197b2322c468a154d9890132dc
:10347400c468a154da89120a2521c46862541969fe
:103484002622c468a1541a69120a2721c468625406
:103494001a69120c0131c46862541a69120e01319e
:1034a400c46862542a22c1688b54190a0132c46860
:1034b400a154190c0132c468a1541b0e0132c16815
:1034c4008b544368984710bd1521fff754fefae763
:1034d40022232d32c168ca54013b152bfad1bfe710
:1034e4005c780020044b19006c31044a04c38b42fd
:1034f400fcd1014b03617047147a00209530000021
:103504000369054a1a60054a5a60054a9a60054ae1
:103514009a64054a5a647047653300001931000003
:10352400a73000003d3200008b3100000123c37638
:10353400002383767047552903d0022901d01370e4
:10354400704703480170437004231370f8e7c046c2
:10355400c8790020f8b5de4657464e464546e0b5e4
:1035640004000026a74d08e0552323776677606999
:103574000368552198470123a376e37e012b6bd181
:103584006069c3689847002866d0a37e052b60d87d
:103594009b00eb589f46217a237fcb1823776069e1
:1035a40003689847217a022322001a322000fff789
:1035b400c2ffe2e7217e237fcb182377606903688b
:1035c4009847217e032322001a322000fff7b3ff1d
:1035d400d3e7637fe268944663441a78217f5218e4
:1035e40022776069197803689847637f591c227aa7
:1035f40091420bdbe268d15c052322001a322000e1
:10360400fff799ff637f01336377b6e7e268d15c24
:10361400032322001a322000fff78dfff2e76069ce
:10362400036831009847784b5b78a376a5e7237f3e
:10363400552b0bd0022b09d06069217f0368984772
:10364400606943699847e676667696e7db432377b5
:10365400f2e7e676667690e76c4d98e0552800d060
:1036640095e055232377543b637690e000281ad0e5
:10367400637a83420ed303005533237720720023e9
:103684006377023363762200193201002000fff7ca
:1036940052ff7ce000236376e2681370152120005a
:1036a400fff769fd73e00023637670e0237e8342b5
:1036b40002d0002363766ae0237fc31823770323b1
:1036c4002200193201002000fff735ff5fe0237f5d
:1036d400c3182377637fe268d054637f0133dbb27e
:1036e4006377227a9a4207d805232200193201000f
:1036f4002000fff720ff4ae00323220019320100d3
:103704002000fff718ff42e0002803d13e4b5b780e
:1037140063763ce03c4b1b78552b02d00023637648
:1037240035e0637a834208d303005533237720724c
:10373400002363770233637629e000236376e2682b
:10374400137015212000fff716fd20e0237f552b71
:1037540009d0022b07d0237f934207d013212000e6
:10376400fff709fd13e0db432377f4e7e3681b78f5
:103774001a2b05d89b0022699b582000984706e025
:1037840021212000fff7f7fc01e000236376e37eac
:10379400002b0ed1606983689847002809d06069be
:1037a400436898470200637e052beed89b00eb58d4
:1037b4009f46174b1b689a6a002a04d09a6a4d23c5
:1037c400d35c042b05d03cbc90469946a246ab463c
:1037d400f8bd6069036998470d4b1a68916a5c23c8
:1037e400cb5c0433984207db916a906a5823c95a28
:1037f400023bc35a99420dd2034a536801335360c2
:10380400e1e7c04600660000c879002018660000a1
:103814005c780020926a00215823d15260690368c1
:103824000231984760692c4e33689b6a5c27d95de6
:10383400036898476069217e036898476069336824
:103844009b6a5a25595d03689847606933689b6a87
:10385400595b090a036898473368986a996a9a6aaf
:10386400c35d0233277edb194f5bfb18575b3f0aae
:10387400ff18ffb200239946174b984655239b46e1
:1038840000254b469b009a4643461b689b6a53445b
:103894005b685e5d6069036831009847f719ffb2a1
:1038a4000135adb243461a68936a4b4424331b78fe
:1038b400ab42e9d84b4601339bb29946936a5a46c8
:1038c4009b5c4b45dcd8022f04d060690368390047
:1038d400984778e7fb37f8e75c780020c1604272cc
:1038e4000376044b0360044b43600023c3764376a2
:1038f4007047c0465935000031350000f0b54f46d9
:10390400d64646464400c0b5c20f47024802400aa4
:10391400844666467b0a4800c90f9a46240e150061
:10392400db00000e8946f600ff2800d18fe001215c
:103934004f464f403900914266d0221a002a00dcdb
:103944009de000283dd1002e00d18be0511e0029be
:1039540000d0b5e001249b1b5a0144d59b019f096b
:10396400380002f021fd05388740844200dd96e0ee
:10397400041b3a0020200134e240041ba7403b0012
:103984005f1ebb41002413435a0704d00f221a4080
:10399400042a00d004335a0127d50134ff2c00d166
:1039a40079e001229b015b0ae4b22a405b02e40550
:1039b400580ad207204310431cbc90469946a2469d
:1039c400f0bdff2ce0d08021c9040e431b2a7bdc10
:1039d40031002020d140821a9640721e96410e4337
:1039e4009b1b5a01bad45a07d0d10122df082a40be
:1039f400ff2c33d1002f00d1a8e08023db033b430d
:103a04005b025b0aff24d1e7211a00294cdd002860
:103a14002ad0ff2cb8d08020c00406431b2900dd27
:103a2400afe030002027c840791a8e40711e8e41c5
:103a340006439b195901d6d50134ff2c00d185e0ea
:103a440001227a491a405b080b4013439ce7002e7d
:103a540000d070e76be73b1ec5d100227b025b0af6
:103a6400e4b2a3e714008fe7002e4dd0481e0028cf
:103a740057d19b1901245a01b5d50224e0e7002a45
:103a840025d1621cd2b2012a72dd9f1b7a0135d581
:103a9400f71a0d0064e7012200232a4086e73b0061
:103aa400634a241a13406fe700296cd1611cc8b221
:103ab40001284eddff2949d09b195b080c0063e700
:103ac400ff2a41d00a0081e701269b1b89e7002ccd
:103ad4001cd0ff2821d08024e404524223431b2a13
:103ae40000dd96e01c002025d440aa1a93405a1efb
:103af40093412343f31a04000d002de7002f00d057
:103b04002ee700220024a9e70c003de7002b58d043
:103b1400d243002aeed0ff28e1d13300ff240d0068
:103b240032e7ff2910d0010078e7002b6ed0ff2484
:103b3400002e00d128e780225146d203114203d03f
:103b44006146114200d13300ff241de7ff24002306
:103b54002ce7002ce9d1002b63d0002e00d113e711
:103b64009b195a0100d43ee7314a0c0013400be77d
:103b7400002c1ed1002b2fd1002e4fd033000d006e
:103b840002e7012655e7002c1fd1002b43d0c9437f
:103b940000290bd0ff2839d01b2944dc1c00202726
:103ba400cc40791a8b40591e8b4123439b19040046
:103bb40040e7002b1ad1002e24d180270022ff03d6
:103bc4001be7330004000d00dee6ff281ed080242e
:103bd400e40449422343dfe7002e00d1d4e69f1bcf
:103be4007a0100d437e7f31a0d00cde6ff24002e46
:103bf40000d1c9e680225046d2031042a4d06046c8
:103c04001042a1d133000d00ff24bde63300ff2490
:103c1400bae601236ee733000400b5e6002700226c
:103c24001ce73300b0e60123c0e7c046ffffff7d79
:103c3400fffffffbf0b5c6464e024702760a7b0a39
:103c44004400c50ff7004800984600b5240e2a002a
:103c5400db00000ec90fbc468d4267d0221a002a31
:103c640000dca5e000283ad1002f00d193e0511eda
:103c7400002900d0bce00124db1b5a0146d59b017e
:103c84009e09300002f090fb05388640844200dd36
:103c94009de0041b320020200134e240041ba640b6
:103ca40033005e1eb341002413435a0704d00f228d
:103cb4001a40042a00d004335a0129d50134ff2cb8
:103cc40000d181e02a009b015b0ae4b25b02e405b7
:103cd400580ad2072043104304bc9046f0bdff2c81
:103ce400e3d080213800c904084384461b2a00dd40
:103cf40082e020206146d140821a60469040020052
:103d0400501e82410a439b1a5a01b8d45a07ced195
:103d1400de082a00ff2c3ad1002e00d1aee0802329
:103d2400db0333435b025b0aff24cfe7211a00293c
:103d340052dd002831d0ff2cb7d080203e00c004d3
:103d44000643b4461b2900ddaae020266046c8408d
:103d5400711a66468e4031004e1eb14101435b1814
:103d64005901d3d50134ff2c00d187e001227849d1
:103d74001a405b080b40134397e7002c00d0a7e0e0
:103d8400002b00d0b6e03b1e62d100260022730255
:103d94005b0ae4b29ae7140087e7002f4dd0481e6f
:103da400002857d1634401245a01afd50224dde72a
:103db400002a24d1621cd2b2012adeddde1b72018c
:103dc40035d5fe1a0d005ce72a0000237ee7330098
:103dd400604a241a134068e7002963d1611cc8b201
:103de40001284eddff2949d063445b080c005ce7e1
:103df400ff2a41d00a0079e701229b1a84e7002cac
:103e04001dd0ff2822d08024e404524223431b2add
:103e140000dd8ae01c002025d440aa1a93405a1ed3
:103e24009341234362460400d31a0d0025e7002e74
:103e340000d026e700220024a9e70c0035e7002b78
:103e44004dd0d243002aedd0ff28e0d16346ff24b1
:103e54000d002ae7ff290fd0010073e7002b61d082
:103e6400ff24002f00d120e780224146d2031142d3
:103e740002d0164200d13b00ff2416e7ff240023a2
:103e840024e7002cead1002b58d0002f00d10ce7f6
:103e940063445a0100d439e72e4a0c00134004e766
:103ea40001215ce7002c1ed1002b40d0c94300291e
:103eb4000bd0ff2836d01b2947dc1c002026cc4021
:103ec400711a8b40591e8b4123436344040047e716
:103ed400002b18d13b1e2dd00d00ff24e5e63b003e
:103ee40004000d00e1e6ff281cd08024e4044942cc
:103ef4002343e0e7002f00d1d7e6de1b72011fd574
:103f0400fb1a0d00d1e6ff24002f00d1cde680225c
:103f14004046d2031042afd01642add13b000d0053
:103f2400ff24c2e66346ff24bfe601237ae73b0091
:103f34000400bae680260022f603f0e63b00b4e66d
:103f4400331e00d0e2e6002221e70123bde7c0468c
:103f5400ffffff7dfffffffbf8b50500c3689e78f8
:103f64003602da781204b6185a78b6181a79120694
:103f7400b618047a063ce4b25f793900200002f0f6
:103f8400f5f9c9b200290ad1022f28d0042f0bd089
:103f9400012f3bd014212800fff7edf84ae014214b
:103fa4002800fff7e8f845e0a4083bd0013ca4b2a0
:103fb4000334a4000822083ee86881184b1e1b78cd
:103fc4001b028f1e3f78db19805c00041b184978a4
:103fd40009065b18b35004329442edd122e0640820
:103fe40020d0013ca3b25b009b19023332000724aa
:103ff400a41b06218e1be9688918085d0002895def
:104004000918118002329a42f5d10be0a4b2002cb7
:1040140008d00023ea68d21892799a5501339ab2eb
:10402400a242f7d302232b720023ea6853706b6811
:1040340028009847f8bdf8b5c2685579a91c437a99
:10404400994259dc93781b02d17809045b185178a2
:104054005b18117909065b189279022a37d0042a71
:1040640016d01421012a48d1aeb2002e08d0002265
:10407400d45cc16889188c70013291b2b142f7d313
:10408400023505720023c26853704368984736e0ce
:10409400afb20022002ff3d01104090cc4686418d5
:1040a400d65ca670c4686418d658360ae670c4682c
:1040b4006418d658360c2671c468a4466144d45892
:1040c400240e4c71043291b2b942e5d3d8e7afb2b1
:1040d4000022002fd4d01104090cc4686418d65ae5
:1040e400a670c468a4466144d45a240acc7002322f
:1040f40091b2b942efd3c3e71521fff73cf8f8bdfd
:10410400f8b50500c3689c4698780002db781b0468
:10411400c01863465b78c01863461b791b06c01839
:1041240001881f4b1e6873681b888b422ad07368f2
:104134001b88002b28d00022013292b274685300ed
:104144009b18db001f00e45a8c4203d07468e35ac6
:10415400002bf1d17368db5b002b17d073682a7acc
:10416400053ad2b261460531df193b699847002808
:1041740011d102232b720023ea6853706b68280064
:10418400984707e00027e5e70027e3e741212800f7
:10419400fef7f1fff8bd14212800fef7ecfff9e764
:1041a4005c780020f8b50500c16888780002cb78f7
:1041b4001b04c0184b78c0180b791b0684469c441a
:1041c40063461f881a4b1e6873681b88bb4225d040
:1041d40073681b88002b23d00022013292b27468ca
:1041e40053009b18db001800e45abc4203d07468e7
:1041f400e35a002bf1d173681b5a002b12d0736859
:1042040002311818c36860469847023028720023a8
:10421400ea6853706b6828009847f8bd0020eae705
:104224000020e8e741212800fef7a5fff5e7c04696
:104234005c7800200369034a5a62034ada61034a3c
:104244001a6270473b400000a9410000054100008c
:104254000369014a9a6270475d3f0000f0b5574612
:104264004e46de464546e0b544024300c60f83b0e1
:104274000f1c640a1b0eb24653d0ff2b27d080229a
:10428400e400d20414437f2252429046984400230f
:1042940099469b467d027800fb0f6d0a000e009341
:1042a40024d0ff2846d080230021ed00db041d43e9
:1042b4007f384746381a4f460f43bf00b94633008c
:1042c400009a874f53404a46ba5801939746002ca8
:1042d4004ed108239946f7339846fd3b9b467d0211
:1042e4007800fb0f6d0a000e0093dad1002d26d161
:1042f400002001213300009a7a4f53404246101a9d
:104304004a460a439200ba581d009746009b2c0067
:104314009a468b465b46022b31d15346ff2100243b
:1043240038e0002c17d10423994600239846013322
:104334009b46afe7ff20002d0bd10221dae72800ce
:1043440002f032f8431f9d4076235b42181a002185
:10435400afe70321ade7200002f026f8431f9c409d
:1043640076235b421b1a9846002399469b4691e7a5
:104374000c239946f3339846fc3b9b468ae7032b70
:1043840000d1a5e05546012b00d081e00123002196
:1043940000242b406402c905600adb070843184364
:1043a40003b03cbc90469946a246ab46f0bd80247f
:1043b4000023e403ff21ede7ff210024eae70123c2
:1043c400591a1b2966dd019a134000210024e1e7f4
:1043d4008023db031c4238d01d4251d01c436402ad
:1043e400640a3300ff21d5e763016c01a3423bd289
:1043f4001b260021013801251f0049005b00002f06
:1044040001db9c4201d81b1b2943013e002ef3d142
:104414001c00631e9c410c4301007f310029cedd4a
:10442400630704d00f232340042b00d0043423015a
:1044340003d501002c4b80311c40fe290ddd0123e6
:10444400019aff2113400024a4e78023db031c43cb
:104454006402640a3300ff219ce70123019aa4014a
:10446400640ac9b2134095e71b1b1a260121c2e74f
:10447400009b8b469a4600244ce76302e5d5002551
:104484008024e4032c436402640a009bff2181e737
:104494000195c1e723002020cb40411a8c40611ec6
:1044a4008c411c43630704d00f232340042b00d00a
:1044b4000434630105d50123019a0121134000242a
:1044c40068e70123019aa401640a1340002161e70b
:1044d4008023db031c436402640a5346ff2159e72b
:0c44e400a05b0000e05b0000fffffff7a2
:020000040000fa
:1044f00070b5814b1b78002b0dd1804a1380804a08
:104500001380804b1b78002b00d07ee000227e4b76
:104510001a80002335e07d4b1a887d4b53437d4a3a
:1045200013601b139bb27c4a13806822ff329342b4
:1045300060d9734a1380794b1b78002b5fd1704b85
:104540001a886e4b1a806f4b1b78002b5dd16b4b1a
:104550000020185e724b984268da404280b28003b5
:104560006b49704b9847704b188001225242664b42
:104570001a80654b00229b5e6c4a0021525e9a4273
:104580000dd00021684a11805e4a1278012a5dd060
:10459000674a68490988914201d8644a1380594a98
:1045a0001278002a00d09ce0634a0025555f614ada
:1045b00014889d4268d000225b4b1a80002c59d091
:1045c0004d4b1b78012b68d05c4b1b78002b00d126
:1045d00082e0013b012b67d9534b1b889c426bd275
:1045e000574a1288a418221ca4b29c4200d91a1c53
:1045f00094b272e0b4225200414b1a809be7404bc8
:104600001b885b423d4a13809de74e4b98478021b3
:10461000890198238222d205d15001224a4b1a7077
:104620000023454a1380434a138090e76823ff33f1
:10463000984200dc6ae780b280033549394b9847dd
:10464000394b18800122304b1a8092e72d4a1170a5
:10465000374a3849098891429fd9374a0025555f22
:10466000344a14889d42a6d12f4b1b88002ca7d119
:10467000002ba5d1334b98470022334b1a70224ba5
:1046800000255d5f002428e0274b1b888022d20193
:104690009342ebd9244b1a8092e72c4b1b78002bca
:1046a00092d12b4b98478fe7214b1f4a1288002449
:1046b0009a4212d9274c10e09c420ed9264a128801
:1046c000a21a92b21c1c934200d2141ca4b2184b22
:1046d000a3429b411c4000e00024164b1c80164b5b
:1046e0001d801e4b00229a5e094b53439b0b1c4ab4
:1046f00013801c4b984770bd137a0020a000002047
:1047000042000020cf7b002022000020e600002095
:10471000d40d00007800002040000020827a0020a4
:1047200099feffff016500005a0000205c00002098
:10473000810600008a0000209c000020ce7b002023
:1047400056000020e9630000837a002098000020d2
:104750001167000082060000a60000207879002082
:0847600020000020b14d000013
:020000040000fa
:10476800f8b557464e464546de46e0b54702460090
:1047780088467f0a360ec40f002e47d0ff2e24d05d
:10478800fb008027ff041f43002399469a467f3e7b
:1047980043465d025800db0f6d0a000e984643d071
:1047a800ff283bd0eb0080250022ed041d437f3815
:1047b8003618731c41469b464b46614013430f2bea
:1047c80064d875489b00c3589f46002f42d10823e0
:1047d8009946063bff269a46dae74146022a28d040
:1047e800032a00d1cee0012a00d0ace0114000201d
:1047f8000022ccb24002d205400ae407104320430d
:104808003cbc90469946a246ab46f8bd002f15d150
:1048180004239946033b00269a46b9e7ff20022263
:10482800002dc5d00322c3e7002d19d10020012295
:10483800bee70124ff220c400020dbe7380001f02e
:10484800b1fd7626431f9f4000237642361a9946cb
:104858009a469de70c239946093bff269a4697e717
:10486800280001f09ffd431f9d4076235b42181ae4
:1048780000229de780200024c003ff22bae73d0004
:104888005246abe73d0021005246a7e73b0c9c4649
:104898002a04120c2b0c1400604665463f043f0c9a
:1048a8007c4342435d437b43270c9b18ff18ba4265
:1048b80003d980235b029c46654424043a04240cf3
:1048c800121993015c1ea3413f0c920e7d191a43e5
:1048d800ad0115432b0104d501235e466a081d402e
:1048e800154332007f32002a25dd6b0704d00f23e1
:1048f8002b40042b00d004352b0103d53200274b65
:1049080080321d40fe2a94dc0124a801400ad2b25c
:104918000c406fe78020c003074207d0054205d14d
:1049280028434002400a4446ff2263e738434002d6
:10493800400aff225ee70124a31a1b2b05dd0c4069
:104948000022002056e75e46cbe72a002020da4006
:10495800c31a9d402b005d1eab4113435a0704d078
:104968000f221a40042a00d004335a0104d5012426
:1049780001220c4000203de701249b01580a0c400d
:10498800002237e780200124c00328434002400a60
:104998000c40ff222ee7c046b4620000fffffff77d
:020000040000fa
:1049a8000000290051007a00a300cc00f4001d018a
:1049b80046016f019701c001e90111023a02620242
:1049c8008b02b402dc0205032d0356037e03a70302
:1049d800cf03f7032004480470049904c104e904d0
:1049e8001105390561058905b105d90501062906ad
:1049f80051067806a006c806ef0617073e076607a1
:104a08008d07b507dc0703082a08510878089f08ae
:104a1800c608ed0814093b0961098809ae09d509da
:104a2800fb09220a480a6e0a940aba0ae00a060b27
:104a38002c0b510b770b9d0bc20be70b0d0c320c9b
:104a4800570c7c0ca10cc60ceb0c100d340d590d39
:104a58007d0da20dc60dea0d0f0e330e560e7a0e01
:104a68009e0ec20ee50e090f2c0f500f730f960ff6
:104a7800b90fdc0fff0f2110441067108910ab101d
:104a8800ce10f01012113411561177119911bb1173
:104a9800dc11fd111f12401261128212a312c312ff
:104aa800e41205132513451366138613a613c613bc
:104ab800e61305142514441464148314a214c114b1
:104ac800e014ff141e153d155b157a159815b715da
:104ad800d515f31511162f164c166a168816a51635
:104ae800c216e016fd161a173717541770178d17c8
:104af800aa17c617e217fe171b18371853186e188f
:104b08008a18a618c118dd18f81813192e1949198a
:104b180064197f199a19b419cf19e919041a1e1ab8
:104b2800381a521a6c1a861a9f1ab91ad31aec1a1a
:104b3800051b1f1b381b511b6a1b831b9c1bb41bab
:104b4800cd1be51bfe1b161c2e1c461c5e1c761c72
:104b58008e1ca61cbe1cd51ced1c041d1b1d331d64
:104b68004a1d611d781d8e1da51dbc1dd31de91d87
:104b7800ff1d161e2c1e421e581e6e1e841e9a1ed7
:104b8800b01ec51edb1ef01e061f1b1f301f451f53
:104b98005a1f6f1f841f991fae1fc31fd71fec1ffb
:044ba8000020c046e3
:020000040000fa
:104bac0000006500c9002e019201f7015b02c002f2
:104bbc0024038803ed035104b5041a057e05e205b0
:104bcc004606aa060e077207d60739089d08010982
:104bdc006409c7092b0a8e0af10a540bb70b1a0c7d
:104bec007c0cdf0c410da40d060e680eca0e2b0fab
:104bfc008d0fee0f5010b11012117311d31134121e
:104c0c009412f4125413b41313147314d2143115e4
:104c1c009015ee154c16ab1609176617c41721180c
:104c2c007e18db1837199319ef194b1aa71a021ba8
:104c3c005d1bb81b121c6c1cc61c201d791dd31dc2
:104c4c002b1e841edc1e341f8c1fe31f3a20912068
:104c5c00e7203d219321e8213d229222e7223b23ac
:104c6c008e23e22335248824da242c257e25cf2597
:104c7c0020267126c12611276027af27fe274c2836
:104c8c009a28e72835298129ce291a2a652ab02a9b
:104c9c00fb2a452b8f2bd82b212c6a2cb22cfa2ccf
:104cac00412d882dcf2d152e5a2e9f2ee42e282fd8
:104cbc006c2faf2ff22f34307630b830f9303931c9
:104ccc007931b931f83136327432b232ef322c33a9
:104cdc006833a333df33193453348d34c634ff3483
:104cec0037356e35a535dc35123648367d36b1365e
:104cfc00e53618374b377e37b037e1371238423844
:104d0c007138a138cf38fd382b3958398439b0393e
:104d1c00db39063a303a593a823aab3ad33afa3a54
:104d2c00213b473b6d3b923bb63bda3bfd3b203c8a
:104d3c00423c643c853ca53cc53ce43c033d213de8
:104d4c003f3d5b3d783d933daf3dc93de33dfc3d73
:104d5c00153e2d3e453e5c3e723e883e9d3eb13e2c
:104d6c00c53ed83eeb3efd3e0f3f203f303f403f1f
:104d7c004f3f5d3f6b3f783f853f913f9c3fa73f47
:104d8c00b13fbb3fc43fcc3fd43fdb3fe13fe73fac
:104d9c00ec3ff13ff53ff83ffb3ffd3fff3f00404d
:044dac000040c046bd
:020000040000fa
:104db00070b5474b1a88474b1d88474b1e885319bf
:104dc0009b199b031b0c454c5c43e40aa24226d270
:104dd000434a138801339bb21380322b26d9414baf
:104de00098470522404b1a700023404a1380404ade
:104df0000021117003213f4a1170394a13803e4a45
:104e000013803e4a1380a5423bd201223a4b1a80be
:104e1000a64254d2394a13880133138056e0304bee
:104e20001b88012b02d9023b2d4a1380a54221d2b7
:104e3000314a138801339bb21380322b21d9294b7d
:104e400098470622284b1a700023284a1380284ac4
:104e5000002111700421274a1170214a1380264a2b
:104e60001380264a1380a64230d2244a1388013385
:104e700013802be0204b1b88012b02d9023b1e4ada
:104e80001380a6421bd21d4a138801339bb21380a4
:104e9000322b1bd9134b98470722134b1a70002350
:104ea000124a1380124a002111700521114a117013
:104eb0000b4a1380104a1380104a138006e00f4bf0
:104ec0001b88012b02d9023b0c4a138070bdc046df
:104ed0009a0000208e00002054000020550500009c
:104ee0001e000020e9630000837a00209c0000205f
:104ef000ce7b0020cf7b0020880000208600002091
:020000040000fa
:104f000010b5024b1b680800984710bd847a00203a
:104f100010b5024b5b68984710bdc046847a0020ec
:104f200010b5024b9b68984710bdc046847a00209c
:104f300010b5024bdb68984710bdc046847a00204c
:104f400070b501f0c1f81d4d2e001036300001f093
:104f50009ff8290028311a4c28340123ff22200011
:104f6000fef7befc2000fef7bffa2000fef7cafaeb
:104f70002000fff761f92000fff76cf9200001f035
:104f8000b7f83100200001f09df80e4c0123226893
:104f900013730121100001f001fd23680a4a5a60d1
:104fa0000a4a1a600a4b2b610a4b6b610a4bab61d0
:104fb0000a4beb6101f01cfc70bdc046847a0020f6
:104fc000847b00205c780020846200007462000012
:104fd000014f0000114f0000214f0000314f000031
:104fe00010b5034b180028309b6a984710bdc04687
:104ff000847b002010b501f003fc10bd10b5034cfc
:1050000020606160a260e36010bdc046847a002029
:10501000044b0360044b4360044b8360044bc36048
:105020007047c046014f0000114f0000214f0000a3
:04503000314f0000fc
:020000040000fa
:105034001f4a204b1a80204a204b1a80204a214bb9
:105044001a80bc22204b1a80204b214a1380b421a1
:105054004900204a11802049204a1180204a1380a7
:10506400204a214b1a80a122204b1a80733a204bec
:105074001a80173a1f4b1a801f4a204b1a80204a65
:10508400204b1a80204a214b1a80214a214b1a8036
:10509400214a224b1a80224a224b1a80af22224be9
:1050a4001a80bd32214b1a80214a224b1a80704744
:1050b4000624000066000020102700009000002055
:1050c4003d0700001c00002092000020d40d0000c9
:1050d400c0000020640000208d070000d0000020e4
:1050e4009e000020204e00007e0000208c00002046
:1050f40056000020a6000020a5400000be000020ad
:1051040076060000a20000200e0700002400002004
:10511400950a0000d2000020820600008a000020c8
:10512400c43200005e000020c8000020bc00002043
:085134005bbfffff2800002013
:020000040000fa
:10513c00374b5a6852031b68db0c13439b029b0ac8
:10514c00344a936300235375110004228b691a426d
:10515c00fcd130491022cb681a42fcd02e4b0022d5
:10516c009a611a612d4a2e4b1a62190004224b685f
:10517c001a42fcd140218823294ad15010004831d1
:10518c00402243581a42fcd040219823244ad15043
:10519c0010005831402243581a42fcd040219c2325
:1051ac001f4ad15010005c31402243581a42fcd0a7
:1051bc004021d8231a4ad15010009831402243582c
:1051cc001a42fcd04021f023154ad1501000b031c6
:1051dc00402243581a42fcd0402182235b00104ae3
:1051ec00d15010001900402243581a42fcd04021e3
:1051fc0084235b000a4ad150100019004022435806
:10520c001a42fcd0074b084a1a61084ada61704707
:10521c0020608000001000400014004006010100d6
:10522c00001c004000080040ff1c0000110206009a
:020000040000fa
:10523c007047704700207047501e824110b2704773
:10524c00002070477f230200803201d0031e01db57
:10525c0018007047404243b2fae7054b984204d01d
:10526c00031e03da404203b200e0024b1800704701
:10527c000080ffffff7f000080231b06984203d0b5
:10528c00c317c018584070470048fce7ffffff7f6a
:10529c0030b500280ad0cc172500604002006140d0
:1052ac000b00121bab411000190030bd80231b06f4
:1052bc009942f0d101225242004bf4e7ffffff7fed
:1052cc0010b5041c002100f035fd002801d1201c74
:1052dc0010bd80231b069c466444f8e770b505009e
:1052ec000c00002200232800210000f0e9fc00281b
:1052fc0002d12800210070bd80231b069c4664440b
:04530c00f7e7c046b9
:020000040000fa
:10531000f8b5de469b46314b45461c68a4234e46f5
:1053200057465b00e0b50500e0580e0090460028a7
:105330004bd043681f2b0ddc5c1c002d21d10233a8
:105340009b0044601e5000203cbc90469946a246fb
:10535000ab46f8bd224b002b3cd0c820400000e0fb
:1053600000bf002836d0a42200235200a158436079
:105370000160a05040328350043283500124002d3c
:10538000ddd09a0091468144424688214f467a50aa
:10539000c4225200904680444246873999401268a0
:1053a0008a460a4394464246614611608422494631
:1053b0005f4652008f50022dc1d1020055468d32fa
:1053c000ff3211680d431560b9e720004d30ff3002
:1053d000e050aee701204042b6e7c046a8690000b1
:0453e00000000000c9
:020000040000fa
:1053e40070b51e4b98471e4a1b2111801d4b198016
:1053f4000a2050805880c63191809980db39d18051
:10540400d9800024d460dc6014811c8154815c81c7
:10541400154b164a1a80588018229a80d980dc606d
:105424001c815c81124b00221a70124b1c80124b9f
:10543400124a13491348144da84714491448154bec
:105444009847154b1c80154b1c80154b1c80154b25
:105454001c80154b1c80154b1c8070bd3550000002
:105464004400002030000020ac0000203b0b000072
:1054740098000020a0000020a670fd3f373753425b
:1054840045b1e74400401c46f1580000acc5a739bb
:1054940085eb913e892b000050790020a4790020ef
:1054a4000c79002068790020607900207879002048
:020000040000fa
:1054b40070b5234b9847234c2080234b984760803a
:1054c400224b9847224d0723ab71063b2b71c02614
:1054d4007601310009201f4b9847310000201e4bf4
:1054e40098472b7e022213432b761c4b98471c4a69
:1054f40023881c4909885b1a138063881a49098820
:105504005b1a5380194b98472a009379012bfcd1dd
:105514000b4b9847164b18800b4b9847154b18802c
:10552400c0246401210002200a4b98472100052071
:10553400094b9847064b01225a7106329a7170bd85
:1055440079690000e000002091690000f54f000037
:105554000044004291680000a96800002164000032
:105564006c000020f8780020f07800200160002012
:08557400e4000020e600002025
:020000040000fa
:10557c00f0b54546de4657464e46e0b51f033d0b9b
:10558c002c4f0e034c00ab465d008446360b640d6d
:10559c00c90f90466d0ddb0fbc422ad0254fbd4282
:1055ac002dd0002c0fd13043070081467842784132
:1055bc00c0b2002d17d15f463a4314d14b460020a0
:1055cc00002b0ad006e0002d02d15846024301d030
:1055dc00994218d04842012108433cbc9046994658
:1055ec00a246ab46f0bd0028f2d00120013b184387
:1055fc00f3e737000743d1d002204042ede75f4686
:10560c001743ced0f8e7ac42e4dc03da481e0121a4
:10561c000843e2e75e45ddd806d000205e45dcd2cb
:10562c000123481e1843d8e7c445d3d80020c445ed
:10563c00f6d3d2e7ff070000f0b54e464546de46ee
:10564c0057465c00e0b51f03db0f99462a4b0e034f
:10565c004d00c90f8446360b6d0d8b4690463f0ba3
:10566c00640d9d4220d0244b9c4222d0002d12d19f
:10567c00304343424341dbb2002c1fd0002b0cd0f3
:10568c004b460120013b034318003cbc9046994615
:10569c00a246ab46f0bd002c16d0cb4517d05b46ce
:1056ac00594201230b43efe7310002230143ebd1b5
:1056bc00d9e7390002231143e6d1d7e73a43ddd1cc
:1056cc0000230028e0d0eae73a43e6d1e7e7a54219
:1056dc00e5dc05dbbe42e2d807d00023be42d3d2c4
:1056ec005946012301390b43cee7c445d7d80023d3
:0c56fc00c445f5d3c8e7c046ff07000016
:020000040000fa
:10570800f8b5ce46474680b50020194b9847194b47
:10571800984700211848194b984700221849022039
:10572800184b9847184b9847184b9847184b984769
:10573800184b9847184d194c194ea847a0470028f0
:10574800fbd18223db059846a027db59db03db0f5f
:10575800336014493000144b994698474346db5947
:105768001248db0f03601249c847124b9847e4e719
:10577800255f0000e96300005958000085690000b2
:10578800b966000061670000e55300006168000029
:10579800616600002d680000e14f000049680000c4
:1057a800f00000203569000091640000e800002046
:0857b80039670000f144000014
:020000040000fa
:1057c000194b1880002827db184b18800122184b32
:1057d0001a80164b00229b5e164a0021525e5a43e5
:1057e000154b1a601111154b19601112144b1960e9
:1057f0001113144b1960921312b2134b190010318c
:105800001a8002338b42fbd10022104b1a80104bbe
:105810001a88104b1a8070474042044b18800122ae
:105820005242034b1a80d4e7fc7f0020d07900203d
:1058300098790020f07900202c790020347900201c
:105840003c79002044790020e0790020dc790020b8
:08585000807a0020107a00208c
:020000040000fa
:1058580010b5184b9847184a138801339bb2138028
:1058680080225201934215d9144b1b681b0b144a12
:105878001380144b1b681b0b134a1380134b984758
:1058880000211348134b9847134b98470722134b93
:105898009a7110bd124b9847084b1a689446604499
:1058a8001860104b9847074b1a6894466044186074
:1058b800ece7c046f54f0000e87800206c7800203f
:1058c800f878002064780020f078002079680000db
:1058d800b55400008569000061680000004400427a
:0858e8007969000091690000dc
:020000040000fa
:1058f000f0b583b0061c019115490860154d191cbf
:10590000101ca847011c144cfe208005a047134b17
:10591000186001998d20c005a047114b18600199ae
:105920001048a047104fb847104b1880311c104842
:10593000a047104b9847104b1880311c0198a04786
:105940000e49a847b8470e4b188003b0f0bdc046bb
:105950008479002069470000614200008c790020b2
:1059600094790020e4cb9648f5620000a0790020ed
:105970000000404831660000cc7b002083f92246bd
:04598000f07900209a
:020000040000fa
:10598400204a214b70b50021934203d21970013390
:105994009342fbd1002503261c4803684168002b71
:1059a40018d100292dd083680c30002b18d0002387
:1059b4000022845c9c5401328a42fad333000b40a7
:1059c4005a1e934189085918890040180368416890
:1059d400002be6d082680c30002a07d10029dcd0e5
:1059e40059181d7001338b42fbd1d6e70029dfd152
:1059f40033000b405a1e93418908591889004018f6
:105a0400e4e770bd6022002000000020e0000000f8
:020000040000fa
:105a140010b51e4a137801210b43137011000122a3
:105a24004b681a42fcd11949a023db00cb61a023a7
:105a3400db050b6204238b600b61154b10221a7279
:105a44001a75022420201c540c301a540c301a5499
:105a54000c301a540c301a540c301a540c301a549a
:105a64000c301a540c301a540c301a540c301a548a
:105a74000c301a540c301a540c301a540b780e3a59
:105a840013430b704b681a42fcd110bd0028004030
:045a9400f8000020f6
:020000040000fa
:105a9800f0b542004d024c004602760a120ec30fc2
:105aa8006d0a240ec90fff2a16d0ff2c18d0002a21
:105ab8000ad170427041c0b2002c15d0002805d020
:105ac800012001390843f0bd002c13d0994214d0ad
:105ad80001205b421843f6e70220002ef3d1e4e7e9
:105ae8000220002defd1e2e7002de7d10020002ea3
:105af800e9d0ede7002de9d1eae7a24206dcdfdbd9
:105b0800ae4203d80020ae42dad3dce70120494296
:045b18000843d8e77f
:020000040000fa
:105b1c0010b58223db05012245215a5404315a5415
:105b2c0001315a5404315a5401315a5401315a54e6
:105b3c0002315a5404315a5401315a5440202539f7
:105b4c0058543038023158542f39253019545524b3
:105b5c0002301c5401301954163836315854c020b8
:105b6c0080014531585040315a5408315a54013152
:105b7c005a54c739d02019540e301a5401301954c4
:105b8c00ae315a549f39b33299540d390b32995462
:025b9c0010bd3a
:020000040000fa
:025b9e00fee720
:020000040000fa
:105ba000ec430000bc430000ce4300001043000063
:105bb000ce430000b2430000ce430000104300007b
:105bc000bc430000bc430000b2430000104300008f
:105bd000184300001843000018430000d44300009d
:105be000bc430000bc43000090430000744400002c
:105bf00090430000b2430000904300007444000052
:105c0000bc430000bc430000b243000074440000e9
:105c10001843000018430000184300007e440000b1
:020000040000fa
:105c2000f0b5420045024c02c30f48006d0a120e47
:105c3000640a000ec90fff2a1ed0ff2821d0002ab7
:105c40000ad16e426e41f6b200280fd1002c0dd160
:105c50000020002d09d005e0002801d1002c01d042
:105c60008b4211d0012158420843f0bd002ef7d0dd
:105c7000012001390843f8e7002dded00220404220
:105c8000f3e7002cdbd0f9e78242ebdc04dba54232
:105c9000e8d80020a542e8d20121581e0843e4e7d5
:105ca0008446101c62468c46191c634600e0c046c0
:105cb0001fb5fff7c7fc002801d40021c8421fbd53
:105cc00010b500f065f84042013010bd10b5fff787
:105cd000b9fc002801db002010bd012010bdc0462a
:105ce00010b5fff7affc002801dd002010bd01203a
:105cf00010bdc04610b5fff741fc002801dc0020b4
:105d000010bd012010bdc04610b5fff737fc0028bc
:105d100001da002010bd012010bdc0468446081cd9
